:04000000F5EF37F0F1
:106F1A00838A1200839A1200838E1200838C1200D5
:106F2A00839C12009598959A959C959E120001B0A3
:106F3A0002D0839801D083881200000E026E000EE0
:106F4A00016E9CEC37F01200839E000E026E000E5A
:106F5A00016E9CEC37F0839A12008FEC37F0A2ECAA
:106F6A0037F095EC37F0A9EC37F0120083A803D07C
:106F7A00036A032A01D0036A0350016E026A1200EF
:106F8A008DEC37F003C001F004C002F09CEC37F03E
:106F9A008FEC37F01200A9EC37F08FEC37F0A2EC47
:106FAA0037F093EC37F091EC37F01200000E0F6EC9
:106FBA000D0E0E6E12C010F013C011F004EC38F072
:106FCA0012008DEC37F0BBEC37F001C006F002C0BE
:106FDA0007F08FEC37F006C004F007C005F0120086
:106FEA0002EE00F0600EEE6AE806FDE100EE5AF0ED
:106FFA00200EEE6AE806FDE100018BEF3CF00EC0C0
:10700A0005F00FC006F0000E086E040E076E45EC80
:10701A0038F010C005F011C006F0000E086E100E10
:10702A00076E45EC38F01200000E0F6E000E0E6E61
:10703A008E0E116EA60E106E04EC38F0000E0F6E56
:10704A00000E0E6E9C0E116EA60E106E04EC38F039
:10705A00120067EC38F00FC017F010C018F08AEC75
:10706A0038F00FC015F010C016F017501510176E33
:10707A0018501610186E17C013F018C014F012002A
:10708A00000E0D6E000E0C6E959815D00CC009F00E
:10709A0005C00AF006C00BF0092A03D0D8900B32BB
:1070AA000A32092EFBD7010E0A14036E046AC5ECD4
:1070BA0037F00C4A0D2A07500C5C08500D58D8B00E
:1070CA001200E4D7000E066E090E056E000E086E59
:1070DA00040E076E45EC38F0000E066E000E056EC3
:1070EA00000E086E080E076E45EC38F0000E096EA9
:1070FA00080E086EB0EC38F008C011F009C012F0A2
:10710A0011C00FF012C010F01200000E066E090E28
:10711A00056E000E086E040E076E45EC38F0000E80
:10712A00066E000E056E000E086E080E076E45EC20
:10713A0038F0000E096E080E086EB0EC38F008C080
:10714A0011F009C012F01150126E116A11C00FF03D
:10715A0012C010F01200000E0C6E000E0B6E000E24
:10716A000E6E000E0D6E958813D00BC00AF0E6EC79
:10717A0037F00A2A03D0D890043605360A2EFBD7F0
:10718A000D5004100D6E0E5005100E6E0B4A0C2A8F
:10719A000C50800A0A6E08500B5C0950800A0A5883
:1071AA00D8A0E3D70DC008F00EC009F01200000EF7
:1071BA000F6E0F0E0E6E12C010F013C011F004EC19
:1071CA0038F0000E066E000E056E000E086E030EF5
:1071DA00076E45EC38F08DEC37F0A2EC37F0000E74
:1071EA00156E000E146E1550800A800F190ED8B451
:1071FA00145CD8B003D0144A152AF5D78FEC37F0AF
:10720A00000E156E000E146E1550800A800F190EAE
:10721A00D8B4145CD8B003D0144A152AF5D7000E96
:10722A00066E000E056E000E086E100E076E45EC17
:10723A0038F012002AC02EF02BC02FF02CC030F0EC
:10724A002DC031F0060ED8902E362F363036313614
:10725A00E82EF9D7C00E2E24326EFF0E2F20336E81
:10726A00FF0E3020346EFF0E3120356E32C012F020
:10727A0033C013F034C014F035C015F035EC3AF0D1
:10728A00000E376E000E366E11D02EEC38F0D89004
:10729A003634D96E3734DA6E2650D9262750DA2298
:1072AA0013C0DEFF14C0DDFF364A372AD8902930D2
:1072BA002F6E28302E6E2E50365C2F503758D8B08D
:1072CA001200E3D7000E066E100E056E000E086E51
:1072DA00000E076E0850800A800F100ED8B4075CA3
:1072EA00D8B021D0000E016E020E026ED89007347B
:1072FA00D96E0834DA6E0150D9260250DA225A0EB3
:10730A00036E000E046ED8900734E16E0834E26E04
:10731A000350E1260450E222DECFE6FFDDCFE5FF8F
:10732A00074A082AD7D7000E086E000E076E0850C3
:10733A00800A800F100ED8B4075CD8B023D0000E94
:10734A00016E020E026ED8900534D96E0634DA6EDA
:10735A000150D9260250DA22400E036E020E046E44
:10736A00D8900734E16E0834E26E0350E1260450E7
:10737A00E222DECFE6FFDDCFE5FF054A062A074A0D
:10738A00082AD5D71200000E126E100E116E0DC00B
:10739A0017F00EC018F0000E1C6E000E1B6E1ED0E9
:1073AA00D8901B34D96E1C34DA6E0950D9260A508B
:1073BA00DA22000E0F6E020E106ED8901734E16EAC
:1073CA001834E26E0F50E1261050E222DECFE6FFBB
:1073DA00DDCFE5FF174A182A1B4A1C2A0B501B5CF3
:1073EA000C501C58D8A0DCD70DC00FF00EC010F0FE
:1073FA000F1E101E0F4A102A200E0F24196E000E9F
:10740A0010201A6E0B50195C0C501A58D8B01DD0A7
:10741A0019C00FF01AC010F00F1E101E0F4A102AC2
:10742A000B500F24136E0C501020146E13C00FF063
:10743A0014C010F00F1E101E0F4A102A0B500F24F2
:10744A00156E0C501020166E04D00BC015F00CC02F
:10745A0016F067EC39F015C009F016C00AF01200F0
:10746A001250226E236A246A256A12C016F013C0CB
:10747A0017F014C018F015C019F017C016F018C08C
:10748A0017F019C018F0196A16501E6E1F6A206A82
:10749A00216A12C016F013C017F014C018F015C0F4
:1074AA0019F0110E05D0D890193218321732163247
:1074BA00E82EF9D716501A6E1B6A1C6A1D6A000E4E
:1074CA000F6E000E0E6E000E1A10106E0E0E1B10AE
:1074DA00116E04EC38F0000E0F6E000E0E6E6E0E7A
:1074EA00116EF80E106E04EC38F0000E0F6E000EDE
:1074FA000E6E000E1E10106E0E0E1F10116E04EC92
:10750A0038F0000E0F6E000E0E6E6E0E116EF70E34
:10751A00106E04EC38F0000E0F6E000E0E6E000EA8
:10752A002210106E0E0E2310116E04EC38F0000EAD
:10753A000F6E000E0E6E6E0E116EF60E106E04ECCD
:10754A0038F012002AC02EF02BC02FF02CC030F0D9
:10755A002DC031F0060ED8902E362F363036313601
:10756A00E82EF9D7C00E2E24326EFF0E2F20336E6E
:10757A00FF0E3020346EFF0E3120356E32C012F00D
:10758A0033C013F034C014F035C015F035EC3AF0BE
:10759A0032C012F033C013F034C014F035C015F005
:1075AA0035EC3AF0000E376E000E366E3750800A10
:1075BA00800F0F0ED8B4365CD8B012D0D8903634BB
:1075CA00D96E3734DA6E2650D9262750DA22DECF22
:1075DA0012F0DDCF13F0DBEC37F0364A372AE6D764
:1075EA0020EE1EF02650D9262750DA22DECF12F0DE
:1075FA00DDCF13F0DCEC38F0200E3224126E000ED0
:10760A003320136E000E3420146E000E3520156ED2
:10761A0035EC3AF0000E376E000E366E3750800A9F
:10762A00800F0F0ED8B4365CD8B012D0D89036344A
:10763A00D96E3734DA6E2850D9262950DA22DECFAD
:10764A0012F0DDCF13F0DBEC37F0364A372AE6D7F3
:10765A0020EE1EF02850D9262950DA22DECF12F069
:10766A00DDCF13F0DCEC38F01200000E0F6E000EC6
:10767A000E6E8E0E116EA60E106E04EC38F0000E11
:10768A000F6E000E0E6E9C0E116EA60E106E04EC9E
:10769A0038F0000E0F6E000E0E6E840E116EA60EDE
:1076AA00106E04EC38F0000E0F6E000E0E6E6A0EAD
:1076BA00116EF80E106E04EC38F0000E0F6E000E0C
:1076CA000E6E6A0E116EF70E106E04EC38F0000E94
:1076DA000F6E000E0E6E6A0E116EF60E106E04EC30
:1076EA0038F026C012F027C013F028C014F029C0C1
:1076FA0015F035EC3AF0000E0F6E000E0E6E880E85
:10770A00116EA60E106E04EC38F0000E0F6E000E0D
:10771A000E6E820E116EA60E106E04EC38F0000E7C
:10772A00066E000E056E000E086E030E076E45EC1F
:10773A0038F08DEC37F0A2EC37F0000E2B6E000E0D
:10774A002A6E2B50800A800F190ED8B42A5CD8B042
:10775A0003D02A4A2B2AF5D78FEC37F0000E2B6E6E
:10776A00000E2A6E2B50800A800F190ED8B42A5C9C
:10777A00D8B003D02A4A2B2AF5D7000E066E000E7F
:10778A00056E000E086E100E076E45EC38F01200FA
:10779A00000E136E000E126E000E0F6E000E0E6EAD
:1077AA000E0E116E3C0E106E04EC38F0000E0F6EC9
:1077BA00000E0E6E6E0E116EF80E106E04EC38F09E
:1077CA00000E0F6E000E0E6E0E0E116E000E106E73
:1077DA0004EC38F0000E0F6E000E0E6E6E0E116E77
:1077EA00F70E106E04EC38F0000E0F6E000E0E6EDF
:1077FA000E0E116E050E106E04EC38F0000E0F6EB0
:10780A00000E0E6E6E0E116EF60E106E04EC38F04F
:10781A00000E0F6E0C0E0E6E3F0E116E3F0E106EA6
:10782A0004EC38F0000E0F6E000E0E6E0E0E116E86
:10783A003C0E106E04EC38F0000E0F6E000E0E6E49
:10784A006E0E116EF80E106E04EC38F0000E0F6E0C
:10785A00000E0E6E0E0E116E000E106E04EC38F055
:10786A00000E0F6E000E0E6E6E0E116EF70E106E7B
:10787A0004EC38F0000E0F6E000E0E6E0E0E116E36
:10788A00040E106E04EC38F0000E0F6E000E0E6E31
:10789A006E0E116EF60E106E04EC38F0000E0F6EBE
:1078AA000C0E0E6E8F0E116E8F0E106E04EC38F0E9
:1078BA00000E0F6E000E0E6E000E116E000E106E90
:1078CA0004EC38F0000E066E000E056E000E086E0F
:1078DA00040E076E45EC38F0000E136E000E126EA1
:1078EA001350800A800FC80ED8B4125CD8B003D0E7
:1078FA00124A132AF5D7000E066E000E056E000E08
:10790A00086E100E076E45EC38F01200000E516E2C
:10791A00000E506E100E536E000E526E100E556E03
:10792A00000E546E100E576E000E566E100E596EE3
:10793A00000E586E500E4F6E000E4E6E000E4A6EBE
:10794A00000E4B6E000E4C6E000E4D6E000E0101C5
:10795A00FF6F000E0101FE6F0101FF51800A800FC7
:10796A00100ED8B4FE5DD8B019D0DE0E486E010EE6
:10797A00496ED8900101FE35D96E0101FF35DA6EE4
:10798A004850D9264950DA2250C0DEFF51C0DDFFE7
:10799A00504A512A0101FE4BFF2BDED7000E01018E
:1079AA00FF6F000E0101FE6F0101FF51800A800F77
:1079BA00100ED8B4FE5DD8B019D0600E486E020E13
:1079CA00496ED8900101FE35D96E0101FF35DA6E94
:1079DA004850D9264950DA2252C0DEFF53C0DDFF93
:1079EA00524A532A0101FE4BFF2BDED7000E01013A
:1079FA00FF6F000E0101FE6F0101FF51800A800F27
:107A0A00100ED8B4FE5DD8B019D0800E486E020EA2
:107A1A00496ED8900101FE35D96E0101FF35DA6E43
:107A2A004850D9264950DA2254C0DEFF55C0DDFF3E
:107A3A00544A552A0101FE4BFF2BDED7000E0101E5
:107A4A00FF6F000E0101FE6F0101FF51800A800FD6
:107A5A00100ED8B4FE5DD8B019D0A00E486E020E32
:107A6A00496ED8900101FE35D96E0101FF35DA6EF3
:107A7A004850D9264950DA2256C0DEFF57C0DDFFEA
:107A8A00564A572A0101FE4BFF2BDED7000E010191
:107A9A00FF6F000E0101FE6F0101FF51800A800F86
:107AAA00200ED8B4FE5DD8B019D0C00E486E000EB4
:107ABA00496ED8900101FE35D96E0101FF35DA6EA3
:107ACA004850D9264950DA2258C0DEFF59C0DDFF96
:107ADA00584A592A0101FE4BFF2BDED797EC37F0A3
:107AEA00D0EC37F0CDEC3BF019EC38F00101010E87
:107AFA00276E0101DE0E266E0201020E296E0201B8
:107B0A00600E286E010E2A6E000E2B6E000E2C6E71
:107B1A00000E2D6EA7EC3AF00201020E276E02014A
:107B2A00800E266E0201020E296E0201A00E286E38
:107B3A00020E2A6E000E2B6E000E2C6E000E2D6E9B
:107B4A00A7EC3AF00001000E396E0001C00E386E43
:107B5A00000E3B6E3E0E3A6E000E3C6E000E3D6EFF
:107B6A00000E3E6E000E3F6ED2EC3DF00001000E9C
:107B7A00276E0001800E266E000E296E3E0E286EBC
:107B8A00000E2A6E000E2B6E000E2C6E000E2D6E4D
:107B9A001FEC39F0B2EC37F0FFD7000E0101D76FB6
:107BAA00000E0101D66F000E0101CD6F010E010119
:107BBA00CC6F000E0101C96F100E0101C86F3CC0E5
:107BCA00D8F13DC0D9F13EC0DAF13FC0DBF13AC08D
:107BDA00D0F13BC0D1F1000E0101DD6F000E0101B1
:107BEA00DC6F21D0D8900101DC35D96E0101DD3579
:107BFA00DA6E3850D9263950DA22000E406E010E5C
:107C0A00416ED8900101DC35E16E0101DD35E26E8D
:107C1A004050E1264150E222DECFE6FFDDCFE5FF0C
:107C2A000101DC4BDD2B3A500101DC5D3B500101C7
:107C3A00DD59D8A0D7D73CC040F03DC041F03EC086
:107C4A0042F03FC043F0070E05D0D890433242328B
:107C5A0041324032E82EF9D7060ED89040364136E6
:107C6A0042364336E82EF9D7401E411E421E431EB5
:107C7A00402A000E4122422243223C504024446EB4
:107C8A003D504120456E3E504220466E3F504320B3
:107C9A00476ED890473246324532443244C0D4F116
:107CAA0045C0D5F13AC040F03BC041F00101D45182
:107CBA0040260101D5514122210E405C000E415857
:107CCA00D8A029D03AC040F03BC041F00101D451BC
:107CDA0040260101D5514122E00E40240101DC6F0A
:107CEA00FF0E412008D0E00E0101DC250101DC6F06
:107CFA00FF0E0101DD210101DD6F0101CC4BCD2B0E
:107D0A000101DD51800AF36E800EF35C210ED8B4B6
:107D1A00DC5DD8B0E8D7000E0101DD6F000E01016D
:107D2A00DC6F5AD10101D8C140F00101D9C141F03B
:107D3A000101DAC142F00101DBC143F0070E05D0AF
:107D4A00D8904332423241324032E82EF9D7010EFE
:107D5A0040240101D26F000E41200101D36F0201BC
:107D6A00020E276E0201000E266E000E296E400ECC
:107D7A00286E0101D2C12AF00101D3C12BF02C6A6D
:107D8A002D6A1FEC39F067EC39F00101010E0A6E19
:107D9A000101000E096ED0C10BF0D1C10CF0D4C1A3
:107DAA000DF0D5C10EF0C8EC39F00101D651092405
:107DBA000101D66F0101D7510A200101D76F0101D4
:107DCA00D8C140F00101D9C141F00101DAC142F044
:107DDA000101DBC143F0070E05D0D890433242328D
:107DEA0041324032E82EF9D7060ED8904036413655
:107DFA0042364336E82EF9D740C026F041C027F074
:107E0A0042C028F043C029F03AEC3BF00101D8C146
:107E1A0040F00101D9C141F00101DAC142F001018A
:107E2A00DBC143F0070E05D0D890433242324132CB
:107E3A004032E82EF9D7060ED890403641364236FF
:107E4A004336E82EF9D740C012F041C013F042C0C1
:107E5A0014F043C015F035EC3AF0000E276E5A0EB6
:107E6A00266E0201020E296E0201400E286E0101E1
:107E7A00D2C12AF00101D3C12BF02C6A2D6AA7ECDA
:107E8A003AF03A500101D65D3B500101D759D8B0BA
:107E9A00A0D0D6C1CAF1D7C1CBF10101D2C140F0FD
:107EAA000101D3C141F0060ED89040364136E82E82
:107EBA00FBD7010140C0D8F1010141C0D9F101014C
:107ECA00DA6B0101DB6B0101D6C140F00101D7C1B8
:107EDA0041F0401E411E404A412A3A5040240101C5
:107EEA00D06F3B5041200101D16F0101D8C140F050
:107EFA000101D9C141F00101DAC142F00101DBC13E
:107F0A0043F0070E05D0D890433242324132403214
:107F1A00E82EF9D7060ED890403641364236433617
:107F2A00E82EF9D7401E411E421E431E402A000E6B
:107F3A004122422243220101D8514024446E0101C8
:107F4A00D9514120456E0101DA514220466E0101A4
:107F5A00DB514320476ED89047324632453244328D
:107F6A0044C0D4F145C0D5F1000E0101CF6F000E17
:107F7A000101CE6F24D0D8900101CA35D96E010112
:107F8A00CB35DA6E3850D9263950DA22000E406ED7
:107F9A00010E416ED8900101CE35E16E0101CF3557
:107FAA00E26E4050E1264150E222DECFE6FFDDCF0D
:107FBA00E5FF0101CA4BCB2B0101CE4BCF2B0101AF
:107FCA00D0510101CE5D0101D1510101CF59D8A093
:107FDA00D2D70101DC4BDD2B0101DD51800A406E55
:107FEA000101CC510101DC5D0101CD51800A4058EB
:067FFA00D8B0120097D67A
:020000040020DA
:08000000FFFFFFFFFFFFFFFF00
:020000040030CA
:0E000000FF081E1EFF8301FF0FC00FE00F4020
:00000001FF
