:04000000DDEF3EF002
:107DAA00838E1200839E1200839A1200838A120025
:107DBA00000102EF3FF09598959A959C959E1200C6
:107DCA0001B002D0839801D083881200000E026E9F
:107DDA00000E016EE5EC3EF01200D9EC3EF0EBEC41
:107DEA003EF0D7EC3EF01200D7EC3EF0D9EC3EF074
:107DFA00EBEC3EF0D5EC3EF01200E0EC3EF0F9EC94
:107E0A003EF0BBEC3FF0F2EC3EF0FFD783A803D084
:107E1A00036A032A01D0036A0350016E026A120040
:107E2A00DBEC3EF003C001F004C002F0E5EC3EF0EA
:107E3A00D9EC3EF01200000E076E000E066EDBEC67
:107E4A003EF00BEC3FF001C006F002C007F0D9EC9F
:107E5A003EF006C004F007C005F012000EC005F09F
:107E6A000FC006F0000E086E040E076E48EC3FF0D5
:107E7A0010C005F011C006F0000E086E100E076E55
:107E8A0048EC3FF01200000E0D6E000E0C6E959835
:107E9A0015D00CC009F005C00AF006C00BF0092A7B
:107EAA0003D0D8900B320A32092EFBD7010E0A14DE
:107EBA00036E046A15EC3FF00C4A0D2A07500C5C5D
:107ECA0008500D58D8B01200E4D7000E136E000EF9
:107EDA00126E000E066E090E056E000E086E040E76
:107EEA00076E48EC3FF0000E066E000E056E000E9F
:107EFA00086E080E076E48EC3FF0000E096E080E79
:107F0A00086E91EC3FF008C012F009C013F012C0DD
:107F1A0010F013C011F01200000E0D6E000E0C6E60
:107F2A00000E0F6E000E0E6E958811D020EC3FF0F9
:107F3A000EC00AF00FC00BF0D8900A360B36045068
:107F4A000A100E6E05500B100F6E0C4A0D2A0D50BA
:107F5A00800A0A6E08500C5C0950800A0A58D8A098
:107F6A00E5D70EC008F00FC009F01200000E156E1A
:107F7A00000E146E000E0F6E000E0E6E0E0E116EB7
:107F8A003F0E106E33EC3FF0000E0F6E000E0E6EB9
:107F9A006E0E116EF80E106E33EC3FF0000E0F6E7F
:107FAA00000E0E6E0E0E116E106833EC3FF0000ECE
:107FBA000F6E000E0E6E6E0E116EF70E106E33EC13
:107FCA003FF0000E0F6E000E0E6E0E0E116E106850
:107FDA0033EC3FF0000E0F6E000E0E6E6E0E116E39
:107FEA00F60E106E33EC3FF06AEC3FF010C014F05E
:067FFA0011C015F0120099
:020000040020DA
:08000000FFFFFFFFFFFFFFFF00
:020000040030CA
:0E000000FF081E1EFF8301FF0FC00FE00F4020
:00000001FF
