:04000000F7EF3CF0EA
:1079DA00838A1200839A1200838E1200838C12000B
:1079EA00839C1200000172EF3EF09598959A959C3F
:1079FA00959E120001B002D0839801D083881200AC
:107A0A00000E026E000E016EFFEC3CF01200839E27
:107A1A00000E026E000E016EFFEC3CF0839A12001B
:107A2A00EFEC3CF005EC3DF0F5EC3CF00CEC3DF0F5
:107A3A00120083A803D0036A032A01D0036A035001
:107A4A00016E026A1200EDEC3CF003C001F004C0C2
:107A5A0002F0FFEC3CF0EFEC3CF012000CEC3DF0D5
:107A6A00EFEC3CF005EC3DF0F3EC3CF0F1EC3CF0D3
:107A7A001200EDEC3CF01EEC3DF001C006F002C035
:107A8A0007F0EFEC3CF006C004F007C005F0120066
:107A9A000EC005F00FC006F0000E086E040E076E49
:107AAA008EEC3DF010C005F011C006F0000E086E15
:107ABA00100E076E8EEC3DF01200000E0F6E000ED7
:107ACA000E6E8E0E116EA60E106E4DEC3DF0000E6F
:107ADA000F6E000E0E6E9C0E116EA60E106E4DEC01
:107AEA003DF01200B0EC3DF00FC017F010C018F0D6
:107AFA00D3EC3DF00FC015F010C016F0175015105A
:107B0A00176E18501610186E17C013F018C014F01C
:107B1A001200000E0D6E000E0C6E959815D00CC05A
:107B2A0009F005C00AF006C00BF0092A03D0D89064
:107B3A000B320A32092EFBD7010E0A14036E046AAD
:107B4A0028EC3DF00C4A0D2A07500C5C08500D58E1
:107B5A00D8B01200E4D7000E066E090E056E000EAC
:107B6A00086E040E076E8EEC3DF0000E066E000ED7
:107B7A00056E000E086E080E076E8EEC3DF0000EC4
:107B8A00096E080E086EF9EC3DF008C011F009C044
:107B9A0012F011C00FF012C010F01200000E066EA3
:107BAA00090E056E000E086E040E076E8EEC3DF08F
:107BBA00000E066E000E056E000E086E080E076EA9
:107BCA008EEC3DF0000E096E080E086EF9EC3DF0E1
:107BDA0008C011F009C012F01150126E116A11C0DA
:107BEA000FF012C010F01200000E0C6E000E0B6E99
:107BFA00000E0E6E000E0D6E958813D00BC00AF0A3
:107C0A003EEC3DF00A2A03D0D890043605360A2EF7
:107C1A00FBD70D5004100D6E0E5005100E6E0B4A58
:107C2A000C2A0C50800A0A6E08500B5C0950800A14
:107C3A000A58D8A0E3D70DC008F00EC009F0120008
:107C4A00000E0F6E0D0E0E6E12C010F013C011F062
:107C5A004DEC3DF0000E0F6E0E0E0E6E14C010F0BD
:107C6A0015C011F04DEC3DF0000E066E000E056ECB
:107C7A00000E086E030E076E8EEC3DF0EDEC3CF044
:107C8A0005EC3DF0000E176E000E166E1750800AB6
:107C9A00800F190ED8B4165CD8B003D0164A172A2A
:107CAA00F5D7EFEC3CF0000E176E000E166E17506B
:107CBA00800A800F190ED8B4165CD8B003D0164AC1
:107CCA00172AF5D7000E066E000E056E000E086E16
:107CDA00100E076E8EEC3DF01200000E276E000E9D
:107CEA00266E000E296E000E286E000E2B6E000EF8
:107CFA002A6E000E2D6E000E2C6E000E2F6E000ED8
:107D0A002E6EFAEC3CF033EC3DF042EC3FF0320ED2
:107D1A00126E120E136E000E146E000E156ED0EC5B
:107D2A003EF062EC3DF0250E136ED60E126E580E22
:107D3A00156EA60E146E25EC3EF02F0E136EDF0E96
:107D4A00126E580E156E146825EC3EF0320E126E45
:107D5A00120E136E000E146E000E156ED0EC3EF06D
:107D6A0077EC3DF013C028F014C029F077EC3DF011
:107D7A0013C02AF014C02BF077EC3DF013C02CF09E
:107D8A0014C02DF077EC3DF013C02EF014C02FF084
:107D9A0015EC3DF0FFD71250226E236A246A256A39
:107DAA0012C016F013C017F014C018F015C019F05D
:107DBA0017C016F018C017F019C018F0196A165033
:107DCA001E6E1F6A206A216A12C016F013C017F0CD
:107DDA0014C018F015C019F0110E05D0D890193238
:107DEA00183217321632E82EF9D716501A6E1B6A55
:107DFA001C6A1D6A000E0F6E000E0E6E000E1A101F
:107E0A00106E0E0E1B10116E4DEC3DF0000E0F6E33
:107E1A00000E0E6E6E0E116EF80E106E4DEC3DF0E9
:107E2A00000E0F6E000E0E6E000E1E10106E0E0E5D
:107E3A001F10116E4DEC3DF0000E0F6E000E0E6E0F
:107E4A006E0E116EF70E106E4DEC3DF0000E0F6EB9
:107E5A00000E0E6E000E2210106E0E0E2310116E02
:107E6A004DEC3DF0000E0F6E000E0E6E6E0E116E92
:107E7A00F60E106E4DEC3DF01200000E136E000E61
:107E8A00126E000E0F6E000E0E6E0E0E116E3C0E6E
:107E9A00106E4DEC3DF0000E0F6E000E0E6E6E0E63
:107EAA00116EF80E106E4DEC3DF0000E0F6E000EC6
:107EBA000E6E0E0E116E000E106E4DEC3DF0000EA1
:107ECA000F6E000E0E6E6E0E116EF70E106E4DECEA
:107EDA003DF0000E0F6E000E0E6E0E0E116E050EA8
:107EEA00106E4DEC3DF0000E0F6E000E0E6E6E0E13
:107EFA00116EF60E106E4DEC3DF0000E0F6E0C0E6C
:107F0A000E6E3F0E116E3F0E106E4DEC3DF0000EE0
:107F1A000F6E000E0E6E0E0E116E3C0E106E4DECB4
:107F2A003DF0000E0F6E000E0E6E6E0E116EF80E04
:107F3A00106E4DEC3DF0000E0F6E000E0E6E0E0E22
:107F4A00116E000E106E4DEC3DF0000E0F6E000E1D
:107F5A000E6E6E0E116EF70E106E4DEC3DF0000EA9
:107F6A000F6E000E0E6E0E0E116E040E106E4DEC9C
:107F7A003DF0000E0F6E000E0E6E6E0E116EF60EB6
:107F8A00106E4DEC3DF0000E0F6E0C0E0E6E8F0E45
:107F9A00116E8F0E106E4DEC3DF0000E0F6E000E3E
:107FAA000E6E000E116E000E106E4DEC3DF0000EBE
:107FBA00066E000E056E000E086E040E076E8EEC3D
:107FCA003DF0000E136E000E126E1350800A800FE1
:107FDA00C80ED8B4125CD8B003D0124A132AF5D707
:107FEA00000E066E000E056E000E086E100E076E6D
:067FFA008EEC3DF01200C8
:020000040020DA
:08000000FFFFFFFFFFFFFFFF00
:020000040030CA
:0E000000FF081E1EFF8301FF0FC00FE00F4020
:00000001FF
