:0400000024EF07F0F2
:100600000001000A006400E80310272564200A00A6
:100610000000000E376E000E366E000E2F6E000EBC
:100620002E6E000E276E000E266E000E296E000E36
:10063000286E000E2B6E000E2A6E000E2D6E000E20
:100640002C6E000E356E000E346E000E306E000EF5
:10065000316E000E326E000E336E38EC07F0F2ECA5
:1006600006F08DEC04F0AEEC06F0000E126E000EFB
:10067000136E000E146E000E156E4BEC05F0000E9E
:10068000376E000E366E0F0E365C000E3758D8B03F
:100690000DD034C012F035C013F0146A156AE7ECBF
:1006A00006F0344A352A364A372AEDD734C012F0DC
:1006B00035C013F0146A156ABDEC05F0000E376EF4
:1006C000000E366E0F0E365C000E3758D8B00DD0C7
:1006D00034C012F035C013F0146A156AE7EC06F066
:1006E000344A352A364A372AEDD734C012F035C09D
:1006F00013F0146A156ABDEC05F0000E126E000EC0
:10070000136E000E146E000E156E4BEC05F0000E0D
:10071000376E000E366E100E365C000E3758D8B0AD
:1007200021D097EC06F013C02EF014C02FF097ECF8
:1007300006F013C026F014C027F097EC06F013C0A3
:1007400028F014C029F097EC06F013C02AF014C06A
:100750002BF097EC06F013C02CF014C02DF0364AA5
:10076000372AD9D730C012F031C013F032C014F09C
:1007700033C015F04BEC05F0000E0F6E000E0E6E40
:10078000840E116EA60E106EC3EC06F0000E0F6EF6
:10079000000E0E6E880E116EA60E106EC3EC06F0E3
:1007A000000E0F6E000E0E6E820E116EA60E106EF3
:1007B000C3EC06F0000E066E000E056E000E086E0D
:1007C000030E076E75EC06F045EC07F02BEC07F016
:1007D000000E376E000E366E190E365C000E37585E
:1007E000D8B003D0364A372AF7D743EC07F0000ECB
:1007F000376E000E366E190E365C000E3758D8B0C4
:1008000003D0364A372AF7D7000E066E000E056E63
:10081000000E086E100E076E75EC06F030C012F078
:1008200031C013F032C014F033C015F04BEC05F0BA
:10083000000E376E000E366E0F0E365C000E375807
:10084000D8B00DD0660E126E660E136E000E146ECA
:10085000000E156EE7EC06F0364A372AEDD7780E13
:10086000126E870E136E000E146E000E156EBDEC28
:1008700005F0000E066E000E056E000E086E030EEB
:10088000076E75EC06F045EC07F02BEC07F0000E58
:10089000376E000E366E190E365C000E3758D8B023
:1008A00003D0364A372AF7D743EC07F0000E376EED
:1008B000000E366E190E365C000E3758D8B003D0D5
:1008C000364A372AF7D7000E0F6E000E0E6E940EC2
:1008D000116EA60E106EC3EC06F0000E126E000E26
:1008E000136E000E146E000E156E4BEC05F0000E2C
:1008F000376E000E366E110E365C000E3758D8B0CB
:1009000009D097EC06F013C02EF014C02FF0364A31
:10091000372AF1D712EC07F0FFD7000E136E000E46
:10092000126E000E0F6E000E0E6E0E0E116E3C0E4D
:10093000106EC3EC06F0000E0F6E000E0E6E6E0E03
:10094000116EF80E106EC3EC06F0000E0F6E000E66
:100950000E6E0E0E116E000E106EC3EC06F0000E41
:100960000F6E000E0E6E6E0E116EF70E106EC3EC53
:1009700006F0000E0F6E000E0E6E0E0E116E050EBE
:10098000106EC3EC06F0000E0F6E000E0E6E6E0EB3
:10099000116EF60E106EC3EC06F0000E0F6E0C0E0C
:1009A0000E6E3F0E116E3F0E106EC3EC06F0000E81
:1009B0000F6E000E0E6E0E0E116E3C0E106EC3EC1E
:1009C00006F0000E0F6E000E0E6E6E0E116EF80E1B
:1009D000106EC3EC06F0000E0F6E000E0E6E0E0EC3
:1009E000116E000E106EC3EC06F0000E0F6E000EBE
:1009F0000E6E6E0E116EF70E106EC3EC06F0000E4A
:100A00000F6E000E0E6E0E0E116E040E106EC3EC05
:100A100006F0000E0F6E000E0E6E6E0E116EF60ECC
:100A2000106EC3EC06F0000E0F6E0C0E0E6E8F0EE5
:100A3000116E8F0E106EC3EC06F0000E0F6E000EDE
:100A40000E6E000E116E000E106EC3EC06F0000E5E
:100A5000066E000E056E000E086E040E076E75EC35
:100A600006F0000E136E000E126E1350800A800FF7
:100A7000C80ED8B4125CD8B003D0124A132AF5D7E6
:100A8000000E066E000E056E000E086E100E076E4C
:100A900075EC06F012001250226E236A246A256A51
:100AA00012C016F013C017F014C018F015C019F0DA
:100AB00017C016F018C017F019C018F0196A1650B0
:100AC0001E6E1F6A206A216A12C016F013C017F04A
:100AD00014C018F015C019F0110E05D0D8901932B5
:100AE000183217321632E82EF9D716501A6E1B6AD2
:100AF0001C6A1D6A000E0F6E000E0E6E000E1A109C
:100B0000106E0E0E1B10116EC3EC06F0000E0F6E71
:100B1000000E0E6E6E0E116EF80E106EC3EC06F027
:100B2000000E0F6E000E0E6E000E1E10106E0E0EDA
:100B30001F10116EC3EC06F0000E0F6E000E0E6E4D
:100B40006E0E116EF70E106EC3EC06F0000E0F6EF7
:100B5000000E0E6E000E2210106E0E0E2310116E7F
:100B6000C3EC06F0000E0F6E000E0E6E6E0E116ED0
:100B7000F60E106EC3EC06F01200000E0F6E0F0E94
:100B80000E6E12C010F013C011F0C3EC06F0000E90
:100B9000066E000E056E000E086E030E076E75ECF5
:100BA00006F045EC07F02BEC07F0000E176E000E78
:100BB000166E1750800A800F190ED8B4165CD8B084
:100BC00003D0164A172AF5D743EC07F0000E176E2C
:100BD000000E166E1750800A800F190ED8B4165CDE
:100BE000D8B003D0164A172AF5D7000E066E000EAD
:100BF000056E000E086E100E076E75EC06F0120002
:100C0000000E0C6E000E0B6E000E0E6E000E0D6EC2
:100C1000958813D00BC00AF0D8EC06F00A2A03D04E
:100C2000D890043605360A2EFBD70D5004100D6EF1
:100C30000E5005100E6E0B4A0C2A0C50800A0A6EDC
:100C400008500B5C0950800A0A58D8A0E3D70DC0A1
:100C500008F00EC009F01200000E066E090E056EB7
:100C6000000E086E040E076E75EC06F0000E066EA0
:100C7000000E056E000E086E080E076E75EC06F08D
:100C8000000E096E080E086E00EC06F008C011F0A8
:100C900009C012F01150126E116A11C00FF012C08B
:100CA00010F01200000E066E090E056E000E086EA2
:100CB000040E076E75EC06F0000E066E000E056E53
:100CC000000E086E080E076E75EC06F0000E096E39
:100CD000080E086E00EC06F008C011F009C012F012
:100CE00011C00FF012C010F01200000E0D6E000EB9
:100CF0000C6E959815D00CC009F005C00AF006C01E
:100D00000BF0092A03D0D8900B320A32092EFBD7F8
:100D1000010E0A14036E046AFDEC06F00C4A0D2A5B
:100D200007500C5C08500D58D8B01200E4D752ECB4
:100D300006F00FC017F010C018F02CEC06F00FC032
:100D400015F010C016F017501510176E1850161029
:100D5000186E17C013F018C014F01200000E0F6EBA
:100D6000000E0E6E8E0E116EA60E106EC3EC06F007
:100D7000000E0F6E000E0E6E9C0E116EA60E106E03
:100D8000C3EC06F012000EC005F00FC006F0000E16
:100D9000086E040E076E75EC06F010C005F011C069
:100DA00006F0000E086E100E076E75EC06F01200CD
:100DB00045EC07F008EC07F001C006F002C007F0B0
:100DC00043EC07F006C004F007C005F01200000E67
:100DD0000F6E0D0E0E6E12C010F013C011F0C3ECAA
:100DE00006F012001BEC07F043EC07F02BEC07F0C9
:100DF0003FEC07F041EC07F0120045EC07F003C0B0
:100E000001F004C002F032EC07F043EC07F01200EE
:100E100083A803D0036A032A01D0036A0350016E3A
:100E2000026A120043EC07F02BEC07F03DEC07F0F0
:100E30001BEC07F01200839E000E026E000E016E86
:100E400032EC07F0839A1200000EF86E060EF76E71
:100E5000000109EF03F0000E026E000E016E32EC8D
:100E600007F0120001B002D0839801D083881200ED
:100E70009598959A959C959E1200839C1200838C60
:0E0E80001200838E1200839A1200838A1200E1
:020000040020DA
:08000000FFFFFFFFFFFFFFFF00
:020000040030CA
:0E000000FF081E1EFF8301FF0FC00FE00F4020
:00000001FF
