:04000000E2EF3EF0FD
:107DB800838C1200838A1200839A1200000113EF49
:107DC8003FF0F5EC3EF0DCEC3EF01200DCEC3EF06F
:107DD800F5EC3EF0120001B002D0839801D0838800
:107DE8001200839C000E026E000E016EEFEC3EF056
:107DF800839A120083A803D0036A032A01D0036A76
:107E08000350016E026A1200DEEC3EF003C001F07E
:107E180004C002F0EFEC3EF0E0EC3EF01200000E81
:107E2800956EE0EC3EF08398E5EC3EF0BAEC3FF05E
:107E3800EAEC3EF0FFD7000E076E000E066EDEEC91
:107E48003EF0FEEC3EF001C006F002C007F0E0ECA8
:107E58003EF006C004F007C005F012000EC005F0A1
:107E68000FC006F0000E086E040E076E47EC3FF0D8
:107E780010C005F011C006F0000E086E100E076E57
:107E880047EC3FF01200000E0D6E000E0C6E15D080
:107E98000CC009F005C00AF006C00BF0092A03D08F
:107EA800D8900B320A32092EFBD7010E0A14036E42
:107EB800046A08EC3FF00C4A0D2A07500C5C085085
:107EC8000D58D8B01200E4D7000E0D6E000E0C6EDF
:107ED800000E0F6E000E0E6E11D01FEC3FF00EC09C
:107EE8000AF00FC00BF0D8900A360B3604500A106F
:107EF8000E6E05500B100F6E0C4A0D2A0D50800A9D
:107F08000A6E08500C5C0950800A0A58D8A0E5D7B8
:107F18000EC008F00FC009F01200000E136E000E1C
:107F2800126E000E066E090E056E000E086E040E27
:107F3800076E47EC3FF0000E066E000E056E000E51
:107F4800086E080E076E47EC3FF09588000E096E24
:107F5800080E086E68EC3FF008C012F009C013F074
:107F6800959812C010F013C011F01200000E156E93
:107F7800000E146E000E0F6E000E0E6E0E0E116EB9
:107F88003F0E106E32EC3FF0000E0F6E000E0E6EBC
:107F98006E0E116EF80E106E32EC3FF0000E0F6E82
:107FA800000E0E6E0E0E116E106832EC3FF0000ED1
:107FB8000F6E000E0E6E6E0E116EF70E106E32EC16
:107FC8003FF0000E0F6E000E0E6E0E0E116EFE0EBE
:107FD800106E32EC3FF0000E0F6E000E0E6E6E0E3D
:107FE800116EF60E106E32EC3FF091EC3FF010C0BF
:087FF80014F011C015F0120095
:020000040020DA
:08000000FFFFFFFFFFFFFFFF00
:020000040030CA
:0E000000FF081E1EFF8301FF0FC00FE00F4020
:00000001FF
